{
  "contractName": "AutoTokenSale",
  "abi": [
    {
      "inputs": [
        {
          "internalType": "contract AutoToken",
          "name": "_tokenContract",
          "type": "address"
        },
        {
          "internalType": "uint256",
          "name": "_tokenBuyingPrice",
          "type": "uint256"
        },
        {
          "internalType": "uint256",
          "name": "_tokenSellingPrice",
          "type": "uint256"
        }
      ],
      "stateMutability": "nonpayable",
      "type": "constructor"
    },
    {
      "anonymous": false,
      "inputs": [
        {
          "indexed": false,
          "internalType": "address",
          "name": "seller",
          "type": "address"
        },
        {
          "indexed": false,
          "internalType": "uint256",
          "name": "token",
          "type": "uint256"
        }
      ],
      "name": "Buy",
      "type": "event"
    },
    {
      "anonymous": false,
      "inputs": [
        {
          "indexed": false,
          "internalType": "address",
          "name": "buyer",
          "type": "address"
        },
        {
          "indexed": false,
          "internalType": "uint256",
          "name": "token",
          "type": "uint256"
        }
      ],
      "name": "Sell",
      "type": "event"
    },
    {
      "inputs": [],
      "name": "numberOfExecutedBought",
      "outputs": [
        {
          "internalType": "uint256",
          "name": "",
          "type": "uint256"
        }
      ],
      "stateMutability": "view",
      "type": "function"
    },
    {
      "inputs": [],
      "name": "numberOfExecutedSold",
      "outputs": [
        {
          "internalType": "uint256",
          "name": "",
          "type": "uint256"
        }
      ],
      "stateMutability": "view",
      "type": "function"
    },
    {
      "inputs": [],
      "name": "tokenBuyingPrice",
      "outputs": [
        {
          "internalType": "uint256",
          "name": "",
          "type": "uint256"
        }
      ],
      "stateMutability": "view",
      "type": "function"
    },
    {
      "inputs": [],
      "name": "tokenContract",
      "outputs": [
        {
          "internalType": "contract AutoToken",
          "name": "",
          "type": "address"
        }
      ],
      "stateMutability": "view",
      "type": "function"
    },
    {
      "inputs": [],
      "name": "tokenSellingPrice",
      "outputs": [
        {
          "internalType": "uint256",
          "name": "",
          "type": "uint256"
        }
      ],
      "stateMutability": "view",
      "type": "function"
    },
    {
      "inputs": [],
      "name": "totalATDBought",
      "outputs": [
        {
          "internalType": "uint256",
          "name": "",
          "type": "uint256"
        }
      ],
      "stateMutability": "view",
      "type": "function"
    },
    {
      "inputs": [],
      "name": "totalATDSold",
      "outputs": [
        {
          "internalType": "uint256",
          "name": "",
          "type": "uint256"
        }
      ],
      "stateMutability": "view",
      "type": "function"
    },
    {
      "inputs": [
        {
          "internalType": "uint256",
          "name": "_numberOfTokens",
          "type": "uint256"
        }
      ],
      "name": "buyToken",
      "outputs": [
        {
          "internalType": "bool",
          "name": "",
          "type": "bool"
        }
      ],
      "stateMutability": "payable",
      "type": "function"
    },
    {
      "inputs": [
        {
          "internalType": "uint256",
          "name": "_numberOfTokens",
          "type": "uint256"
        }
      ],
      "name": "sellToken",
      "outputs": [
        {
          "internalType": "bool",
          "name": "",
          "type": "bool"
        }
      ],
      "stateMutability": "nonpayable",
      "type": "function"
    },
    {
      "inputs": [],
      "name": "totalEthereumReceived",
      "outputs": [
        {
          "internalType": "uint256",
          "name": "",
          "type": "uint256"
        }
      ],
      "stateMutability": "view",
      "type": "function"
    },
    {
      "inputs": [],
      "name": "totalEthereumSent",
      "outputs": [
        {
          "internalType": "uint256",
          "name": "",
          "type": "uint256"
        }
      ],
      "stateMutability": "view",
      "type": "function"
    }
  ],
  "bytecode": "0x60806040523480156200001157600080fd5b5060405162001149380380620011498339818101604052810190620000379190620001a8565b826000806101000a81548173ffffffffffffffffffffffffffffffffffffffff021916908373ffffffffffffffffffffffffffffffffffffffff160217905550816001819055508060028190555033600360006101000a81548173ffffffffffffffffffffffffffffffffffffffff021916908373ffffffffffffffffffffffffffffffffffffffff160217905550600060058190555060006004819055506000600781905550600060068190555050505062000204565b600080fd5b600073ffffffffffffffffffffffffffffffffffffffff82169050919050565b60006200012182620000f4565b9050919050565b6000620001358262000114565b9050919050565b620001478162000128565b81146200015357600080fd5b50565b60008151905062000167816200013c565b92915050565b6000819050919050565b62000182816200016d565b81146200018e57600080fd5b50565b600081519050620001a28162000177565b92915050565b600080600060608486031215620001c457620001c3620000ef565b5b6000620001d48682870162000156565b9350506020620001e78682870162000191565b9250506040620001fa8682870162000191565b9150509250925092565b610f3580620002146000396000f3fe60806040526004361061009c5760003560e01c8063956fedc611610064578063956fedc61461018f578063acea749e146101ba578063bf999bb9146101e5578063cba1f0e614610210578063ed10c27b1461023b578063f4471131146102665761009c565b80632397e4d7146100a1578063287c134d146100de5780632d296bf11461010957806355a373d6146101395780637d55b2e614610164575b600080fd5b3480156100ad57600080fd5b506100c860048036038101906100c391906108b4565b610291565b6040516100d591906108fc565b60405180910390f35b3480156100ea57600080fd5b506100f361054e565b6040516101009190610926565b60405180910390f35b610123600480360381019061011e91906108b4565b610554565b60405161013091906108fc565b60405180910390f35b34801561014557600080fd5b5061014e6107d6565b60405161015b91906109c0565b60405180910390f35b34801561017057600080fd5b506101796107fa565b6040516101869190610926565b60405180910390f35b34801561019b57600080fd5b506101a461080f565b6040516101b19190610926565b60405180910390f35b3480156101c657600080fd5b506101cf610815565b6040516101dc9190610926565b60405180910390f35b3480156101f157600080fd5b506101fa61081b565b6040516102079190610926565b60405180910390f35b34801561021c57600080fd5b50610225610821565b6040516102329190610926565b60405180910390f35b34801561024757600080fd5b50610250610827565b60405161025d9190610926565b60405180910390f35b34801561027257600080fd5b5061027b61082d565b6040516102889190610926565b60405180910390f35b6000806102a083600254610842565b905060008060009054906101000a900473ffffffffffffffffffffffffffffffffffffffff1673ffffffffffffffffffffffffffffffffffffffff1663dd62ed3e33306040518363ffffffff1660e01b81526004016103009291906109fc565b602060405180830381865afa15801561031d573d6000803e3d6000fd5b505050506040513d601f19601f820116820180604052508101906103419190610a3a565b905083811015610386576040517f08c379a000000000000000000000000000000000000000000000000000000000815260040161037d90610ac4565b60405180910390fd5b60008054906101000a900473ffffffffffffffffffffffffffffffffffffffff1673ffffffffffffffffffffffffffffffffffffffff166323b872dd3330876040518463ffffffff1660e01b81526004016103e393929190610ae4565b6020604051808303816000875af1158015610402573d6000803e3d6000fd5b505050506040513d601f19601f820116820180604052508101906104269190610b47565b506000803373ffffffffffffffffffffffffffffffffffffffff168460405161044e90610ba5565b60006040518083038185875af1925050503d806000811461048b576040519150601f19603f3d011682016040523d82523d6000602084013e610490565b606091505b5091509150816104d5576040517f08c379a00000000000000000000000000000000000000000000000000000000081526004016104cc90610c06565b60405180910390fd5b7fe3d4187f6ca4248660cc0ac8b8056515bac4a8132be2eca31d6d0cc170722a7e3387604051610506929190610c26565b60405180910390a185600460008282546105209190610c7e565b9250508190555060016006600082825461053a9190610c7e565b925050819055506001945050505050919050565b60045481565b60008061056383600154610842565b90503481146105a7576040517f08c379a000000000000000000000000000000000000000000000000000000000815260040161059e90610d24565b60405180910390fd5b8260008054906101000a900473ffffffffffffffffffffffffffffffffffffffff1673ffffffffffffffffffffffffffffffffffffffff166370a08231306040518263ffffffff1660e01b81526004016106019190610d44565b602060405180830381865afa15801561061e573d6000803e3d6000fd5b505050506040513d601f19601f820116820180604052508101906106429190610a3a565b1015610683576040517f08c379a000000000000000000000000000000000000000000000000000000000815260040161067a90610dd1565b60405180910390fd5b60008054906101000a900473ffffffffffffffffffffffffffffffffffffffff1673ffffffffffffffffffffffffffffffffffffffff1663a9059cbb33856040518363ffffffff1660e01b81526004016106de929190610c26565b6020604051808303816000875af11580156106fd573d6000803e3d6000fd5b505050506040513d601f19601f820116820180604052508101906107219190610b47565b610760576040517f08c379a000000000000000000000000000000000000000000000000000000000815260040161075790610e3d565b60405180910390fd5b7f5e5e995ce3133561afceaa51a9a154d5db228cd7525d34df5185582c18d3df093384604051610791929190610c26565b60405180910390a182600560008282546107ab9190610c7e565b925050819055506001600760008282546107c59190610c7e565b925050819055506001915050919050565b60008054906101000a900473ffffffffffffffffffffffffffffffffffffffff1681565b600061080a600554600154610842565b905090565b60015481565b60065481565b60075481565b60055481565b60025481565b600061083d600454600254610842565b905090565b60008082148061086a57508282838561085b9190610e5d565b9250826108689190610ece565b145b61087357600080fd5b92915050565b600080fd5b6000819050919050565b6108918161087e565b811461089c57600080fd5b50565b6000813590506108ae81610888565b92915050565b6000602082840312156108ca576108c9610879565b5b60006108d88482850161089f565b91505092915050565b60008115159050919050565b6108f6816108e1565b82525050565b600060208201905061091160008301846108ed565b92915050565b6109208161087e565b82525050565b600060208201905061093b6000830184610917565b92915050565b600073ffffffffffffffffffffffffffffffffffffffff82169050919050565b6000819050919050565b600061098661098161097c84610941565b610961565b610941565b9050919050565b60006109988261096b565b9050919050565b60006109aa8261098d565b9050919050565b6109ba8161099f565b82525050565b60006020820190506109d560008301846109b1565b92915050565b60006109e682610941565b9050919050565b6109f6816109db565b82525050565b6000604082019050610a1160008301856109ed565b610a1e60208301846109ed565b9392505050565b600081519050610a3481610888565b92915050565b600060208284031215610a5057610a4f610879565b5b6000610a5e84828501610a25565b91505092915050565b600082825260208201905092915050565b7f436865636b2074686520746f6b656e20616c6c6f77616e636500000000000000600082015250565b6000610aae601983610a67565b9150610ab982610a78565b602082019050919050565b60006020820190508181036000830152610add81610aa1565b9050919050565b6000606082019050610af960008301866109ed565b610b0660208301856109ed565b610b136040830184610917565b949350505050565b610b24816108e1565b8114610b2f57600080fd5b50565b600081519050610b4181610b1b565b92915050565b600060208284031215610b5d57610b5c610879565b5b6000610b6b84828501610b32565b91505092915050565b600081905092915050565b50565b6000610b8f600083610b74565b9150610b9a82610b7f565b600082019050919050565b6000610bb082610b82565b9150819050919050565b7f4661696c656420746f2063726564697420637573746f6d657200000000000000600082015250565b6000610bf0601983610a67565b9150610bfb82610bba565b602082019050919050565b60006020820190508181036000830152610c1f81610be3565b9050919050565b6000604082019050610c3b60008301856109ed565b610c486020830184610917565b9392505050565b7f4e487b7100000000000000000000000000000000000000000000000000000000600052601160045260246000fd5b6000610c898261087e565b9150610c948361087e565b9250828201905080821115610cac57610cab610c4f565b5b92915050565b7f74686520636f7374206d75737420626520657175616c20746f2074686520657460008201527f6820616d6f756e74000000000000000000000000000000000000000000000000602082015250565b6000610d0e602883610a67565b9150610d1982610cb2565b604082019050919050565b60006020820190508181036000830152610d3d81610d01565b9050919050565b6000602082019050610d5960008301846109ed565b92915050565b7f746f6b656e2073616c6520636f6e7472616374206e6565647320746f2062652060008201527f66756e6465640000000000000000000000000000000000000000000000000000602082015250565b6000610dbb602683610a67565b9150610dc682610d5f565b604082019050919050565b60006020820190508181036000830152610dea81610dae565b9050919050565b7f7472616e73616374696f6e20646964206e6f7420676f207468726f7567680000600082015250565b6000610e27601e83610a67565b9150610e3282610df1565b602082019050919050565b60006020820190508181036000830152610e5681610e1a565b9050919050565b6000610e688261087e565b9150610e738361087e565b9250828202610e818161087e565b91508282048414831517610e9857610e97610c4f565b5b5092915050565b7f4e487b7100000000000000000000000000000000000000000000000000000000600052601260045260246000fd5b6000610ed98261087e565b9150610ee48361087e565b925082610ef457610ef3610e9f565b5b82820490509291505056fea2646970667358221220bb5fea5c45dd80535d0fa7ab6e49aef10a47c805e4fb14b07f63a4e35a4515c364736f6c63430008110033",
  "immutableReferences": {},
  "source": "// SPDX-License-Identifier: SEE LICENSE IN LICENSE\npragma solidity 0.8.17;\nimport \"./AutoToken.sol\";\n\n\n contract AutoTokenSale { \n  AutoToken public tokenContract; \n  uint256 public tokenBuyingPrice;\n  uint256 public tokenSellingPrice;\n  address internal admin;\n  uint256 public totalATDSold; \n  uint256 public totalATDBought;\n\n  uint public numberOfExecutedSold;\n  uint public numberOfExecutedBought;\n\n  event Sell(address buyer, uint256 token);\n  event Buy(address seller, uint256 token);\n\n  constructor(AutoToken _tokenContract, uint256 _tokenBuyingPrice, uint256 _tokenSellingPrice){ \n    tokenContract = _tokenContract;\n    tokenBuyingPrice = _tokenBuyingPrice;\n    tokenSellingPrice = _tokenSellingPrice;\n    admin = msg.sender;// ensure the creator of the contract is the admin\n    // tokenContract.transfer(address(this), tokenContract.totalSupply());// assign all tokens to the sale contract\n\n    totalATDBought = 0;\n    totalATDSold = 0;\n    numberOfExecutedBought = 0;\n    numberOfExecutedSold = 0;\n  }\n\n  function multiply(uint x, uint y) internal pure returns (uint z) {\n        require(y == 0 || (z = x * y) / y == x);\n  }\n\n  function buyToken(uint256 _numberOfTokens) public payable returns (bool) { // user wants to buy\n\n    uint256 cost = multiply(_numberOfTokens, tokenBuyingPrice);\n\n    require( cost == msg.value, 'the cost must be equal to the eth amount');\n    require(tokenContract.balanceOf(address(this)) >= _numberOfTokens, 'token sale contract needs to be funded'); // ensure the contract has enough balance\n\n    require(tokenContract.transfer(msg.sender, _numberOfTokens),'transaction did not go through'); // send them their token\n\n    emit Sell(msg.sender, _numberOfTokens);\n\n    totalATDBought += _numberOfTokens;\n    numberOfExecutedBought += 1;\n\n    return true;\n  }\n\n  function sellToken(uint256 _numberOfTokens) public returns (bool) { // user wants to sell\n    uint256 profit = multiply(_numberOfTokens, tokenSellingPrice);\n\n    // bool approved = tokenContract.approve(address(this), _numberOfTokens);\n\n    // require(approved, 'transaction could not be approved');\n    uint256 allowance = tokenContract.allowance(msg.sender, address(this)); // collect allowance to spend on behalf of the seller\n  \n    require(allowance >= _numberOfTokens, \"Check the token allowance\");\n  \n    tokenContract.transferFrom(msg.sender, address(this), _numberOfTokens);\n\n    \n    (bool sent, bytes memory data) = msg.sender.call{value: profit}(\"\"); // send the caller eth\n\n    data;\n    require(sent, 'Failed to credit customer');\n\n    emit Buy(msg.sender, _numberOfTokens);\n\n    totalATDSold += _numberOfTokens;\n    numberOfExecutedSold += 1;\n\n    return true;\n  }\n\n  function totalEthereumReceived() public view returns (uint256){ \n      return multiply(totalATDBought, tokenBuyingPrice);\n  }\n\n  function totalEthereumSent() public view returns (uint256){ \n      return multiply(totalATDSold, tokenSellingPrice);\n  }\n\n}",
  "sourcePath": "/Users/joseph/repos/autodesk/autotoken/contracts/AutoTokenSale.sol",
  "compiler": {
    "name": "solc",
    "version": "0.8.17+commit.8df45f5f.Emscripten.clang"
  },
  "schemaVersion": "3.4.11",
  "updatedAt": "2023-01-10T22:15:32.778Z",
  "devdoc": {
    "kind": "dev",
    "methods": {},
    "version": 1
  },
  "userdoc": {
    "kind": "user",
    "methods": {},
    "version": 1
  }
}